:0600000002000B020206E3
:0700640075230E75245A7587
:06006B0025A575284C7567
:050071002941752A0081
:030076000200067F
:0500060012064680FE19
:08007900AA82AB837C007D002C
:0E008100C3EC9AED64808BF063F08095F05034
:05008F00147EE87F0370
:050094001EBEFF011F6C
:0B009900EE4F70F70CBC00E00D80DDA6
:0100A4002239
:0500A500AA82BA0A0066
:0800AA00500674302AF5822291
:0600B20074372AF58222DA
:0300B8008582C17D
:0900BB00E58630E1FB5386FD22CD
:0600C400AA82AB83ACF040
:0E00CA008A828B838CF0120DD5FD60188D821A
:0500D8000ABA00010B53
:0E00DD00C002C003C0041200B8D004D003D08B
:0300EB000280DCB4
:0100EE0022EF
:0A00EF001200C4900E2D75F080027F
:0200F90000C441
:0D00FB00AA8274F05AC4540FF582C002129C
:0D01080000A51200B8D002740F5AF5821243
:0501150000A50200B886
:0E011A00AA82AB8374F05BC4540FF582C0025E
:0E012800C0031200A51200B8D003740F5BF5DF
:0E01360082C0031200A51200B8D003D00274DC
:0E014400F05AFCE4C4CCC4540F6CCC540FCC65
:0E0152006CCC8C82C002C0031200A51200B853
:0D016000D003D00253020F8A821200A502C4
:02016D0000B8D8
:0E016F00AA827B00C3EA9480EB6480948050E7
:0A017D001E751002E4F5118A828B52
:0C01870083120DF1E5828583F0C39526FC
:09019300F582E5F09527F58322C1
:0C019C008A82EB24FFF583751002E4F565
:0B01A80011120DF1E5828583F0C39574
:0A01B30026F582E5F09527F583227A
:0E01BD00AA82AB83ACF0120DD5FDA3120DD5B6
:0E01CB00FEA296E433FF7800B50506E8B506FF
:0301D9000280148D
:0E01DC00B293900064C002C003C00412007908
:0601EA00D004D003D00296
:0E01F000A296E433FD7E008A828B838CF0EDB4
:0801FE00120712A3EE02071222
:0E020600C0E0C082C083C002C0D075D000909E
:09021400DF3BE0FABA0D0280059F
:05021D00BA1326801356
:06022200AA220522EA24D5
:0A02280000F582E434F0F583E5D917
:03023200F0801148
:06023500AA220522EA24C2
:0A023B0000F582E434F0F583E0F5ED
:01024500D9DF
:0B024600D0D0D002D083D082D0E032B4
:0E025100900E3075F0801200EF75CBDCC2D835
:0C025F0030D8FD75CB0075220075E1035E
:08026B0090DF3BE0FABA13F842
:0E02730090DF3BE0FABA01F875E900900E3911
:0602810075F0800200EFA1
:0D028700AA82AB83ACF0C002C003C00474B7
:0A02940028C0E07400C0E07440C010
:0A029E00E0744AC0E0740EC0E07482
:0A02A80080C0E07423C0E07400C0C1
:0A02B200E07440C0E07441C0E07445
:0A02BC000EC0E07480C0E07400C0C2
:0C02C600E074F0C0E0E4C0E01207EAE5DC
:0902D2008124EEF5817A007B0025
:0A02DB00C3EA952BEB6480852CF03C
:0E02E50063F08095F05012C002C00312025167
:0B02F300D003D0020ABA00E00B80DD4F
:0102FE0022DD
:0802FF00E5E920E40302051B00
:0D03070075E900900E4C75F0801200EF902B
:09031400F000E0F5821200FB90FC
:09031D000E5875F0801200EF90FB
:09032600F001E0F5821200FB90E9
:09032F00F002E0F5821200FB90DF
:0C0338000E5875F0801200EF7A037B0075
:0C03440090F000E0FC7D000CBC00010DFE
:0C035000C3EA9CEB9D50358A04EC242A83
:0A035C00F8EA2400F582EB34F0F516
:0C03660083E0F68A048B050ABA00010B44
:0A037200EC2400F582ED34F0F58371
:0E037C00E0F582C002C0031200B8D003D00228
:02038A0080B839
:0A038C00753900900E5875F08012CC
:0903960000EF900E5975F0801281
:0C039F0000C490DF3AE0F5821200FB90F1
:0E03AB000E6075F0801200C490DF39E0F5821C
:0A03B9001200FB900E5875F0801240
:0E03C30000EF90DF3CE0FA30E70B900E67751C
:0703D100F0801200EF80092B
:0903D800900E6F75F0801200EF29
:0403E10075107975A5
:0303E500110E7581
:0703E8001280751303E4F518
:0803EF001490002D75F040127E
:0E03F7000693E5828583F045F0600302051B46
:0404050075107D757C
:03040900110E755C
:07040C001280751309E4F5ED
:080413001490003075F0401256
:0C041B000693E5828583F045F0701475AF
:060427002B01E4F52C900E
:0B042D00002D75F040120287D29302F0
:02043800051BA2
:04043A00751087753D
:03043E00110E7527
:070441001280751309E4F5B8
:080448001490003075F0401221
:0C0450000693E5828583F045F07014757A
:06045C002B01E4F52C90D9
:0B046200002D75F040120287C29302CB
:02046D00051B6D
:04046F0075109175FE
:03047300110E75F2
:070476001280751309E4F583
:08047D001490003075F04012EC
:0C0485000693E5828583F045F070127547
:060491002B01E4F52C90A4
:09049700002D75F04012028702ED
:0204A000051B3A
:0404A20075109B75C1
:0304A600110E75BF
:0704A9001280751309E4F550
:0804B0001490003075F04012B9
:0C04B8000693E5828583F045F070147512
:0604C4002B01E4F52C9071
:0D04CA00002D75F0401202871200008044E2
:0404D7007510A57582
:0304DB00110E758A
:0704DE001280751309E4F51B
:0804E5001490003075F0401284
:0E04ED000693E5828583F045F070232093117D
:0704FB00752B01E4F52C90C4
:0A0502000E8775F080120287800F4B
:07050C00752B01E4F52C90B2
:080513000E7D75F080120287D5
:09051B0090DF3BE0FABA0D012269
:0605240075220075E102E2
:0E052A0090DF3BE0FABA0DF8900EAF75F0804E
:030538000200EFCF
:03053B0053BEFBB1
:0E053E00E5BE30E6FBAAC674B85AF5F07401AB
:04054C0045F0F5C6BB
:0E055000E5C620E6FB43BE0475E10490DF0B18
:0E055E007424F090DF0A742DF090DF097424ED
:0E056C00F090DF2E74C2F090DF07740CF09058
:0E057A00DF0C741DF090DF0D7455F090DF0E55
:0E0588007413F090DF117463F090DF1A74B6F4
:0E059600F090DF15741DF090DF16741CF090CD
:0E05A400DF1774C7F090DF18E4F090DF1974D1
:0E05B200B0F090DF1C74EAF090DF08E4F090E7
:0E05C000DF1B7410F090DF147418F090DF1C35
:0E05CE0074EAF090DF1D742AF090DF1EE4F056
:0D05DC0090DF1F741FF090DF237488F090F3
:0E05E900DF247431F090DF257409F090DF0FED
:0E05F7007423F090DF107411F090DF06E4F032
:0D06050090DF137430F090DF037404F09068
:0E061200DF047445F090DF05E4F090DF027421
:0A0620000FF075264DE4F52775E98B
:0B062A0000752200C289D2A875E1040F
:0E06350090DF3BE0FABA01F8900EC575F08038
:030643000200EFC3
:0E064600AAF174FE5AF5F0740245F0F5F14386
:0E065400F30C4386C075C50D75C23BC28B43C7
:0B066200FE08C293A296E433F53A753F
:0A066D003B0012053BD2D1D2AF755D
:060677002B05E4F52C90B8
:08067D000ED375F08012028714
:0A0685001202FF90003A75F04012D7
:04068F0001BD80F237
:030E2D000D0A00AB
:090E3000537461727420545800DF
:080E3900446F6E65205458005F
:090E410025732573257325730048
:020E4A00610045
:0C0E4C004E6577205061636B65743A00BE
:010E58000099
:070E5900525353493A2000F7
:070E6000204C51493A20002B
:080E67004352433A204F4B00B7
:0A0E6F004352433A204661696C00CB
:040E7900614C4C007C
:0A0E7D004C45444F4E2D2D2D2D0045
:0A0E87004C45444F46462D2D2D002A
:0A0E910048454C4C4F2D2D2D2D002F
:0A0E9B005245424F4F542D2D2D00FB
:0A0EA5004C45442D2D2D2D2D2D0060
:0E0EAF0057616974696E6720746F2072656305
:080EBD00656976652E2E2E00FA
:0E0EC500526164696F20537461727465640039
:0A0ED3005354415254494E472D007C
:0A069300AA82AB83ACF0E513451416
:06069D0070049000002231
:0506A300AD10AE11AF27
:0406A80012A813A9D8
:0106AC001439
:0506AD0018B8FF01195F
:0E06B200E84960368A828B838CF0120DD5F5F4
:0C06C000156029C000C0018D828E838F60
:0A06CC00F0120DD5F8B515028006F6
:0606D600D001D0008010ED
:0906DC00D001D0000ABA00010BA4
:0706E5000DBD00C40E80C131
:0E06EC008A828B838CF0120DD5FA3395E0FBD9
:0E06FA008D828E838FF0120DD5FD3395E0FCBE
:0A070800EAC39DF582EB9CF5832205
:06003A00E478FFF6D8FD9A
:080018007900E94400601B7A45
:0500200000900EE878DD
:03002500FF7593D1
:0A002800F0E493F2A308B80002050B
:0800320093D9F4DAF27593FF93
:0E07120020F71030F6118883A88220F507F634
:05072000A883758300B1
:0107250022B1
:03072600F280F767
:02072900F022BC
:080040007800E84400600A7931
:03004800007593AD
:06004B00F0E4F309D8FC0B
:0800510078FFE84400600C791F
:0B0059000190F000E4F0A3D8FCD9FAFD
:05072B007A10E4FBFC64
:0E073000E58225E0F582E58333F583EB33FBAC
:0A073E00EC33FCEB9510F5F0EC95A0
:09074800114006FCABF0438201F4
:03075100DADD22CC
:08075400C00F85810FC082E592
:0C075C000F24FBF886820886830886F0D4
:0B076800120DD5FEA3120DD5FFA31249
:0D0773000DD5FA74012EFBE43FFC8A05E56C
:0C0780000F24FBF886820886830886F0B0
:0C078C00EB120712A3EC120712A3ED12EF
:0C07980007128E828F838AF0A80F08E6FB
:0707A400120712850F81D03E
:0207AB000F221B
:0807AD0085820C85830D85F0A7
:0307B5000E754876
:0507B8000C75490075FD
:0407BD004A40850821
:0307C1004B85095C
:0307C4004C850A57
:0307C7004D850B52
:0507CA004E90075412DF
:0907CF0008CFAA82AB83AC0CAD8B
:0A07D8000DAE0E8C828D838EF0E4CE
:0807E2001207128A828B8322A8
:0607EA00C00F85810FE540
:0607F0000F24F8F54EE5B0
:0707F6000F24FBFA8A48758D
:0607FD004900754A40E5C9
:080803000F24F8F8864B08866B
:05080B004C08864D9031
:0A08100007541208CFAA82AB83E55B
:0C081A000F24FBF88604088605088606FB
:0E0826008C828D838EF0E41207128A828B83FF
:03083400D00F22C0
:07083700AA82C03EC03FC0D1
:06083E0040744EC0E0749E
:0608440008C0E0C03CC04A
:04084A003D8A82223F
:0A084E001581158115810546E4B5FA
:040858004602054708
:01085C002279
:0E085D00AA8274302AFA24C6500A74072AFAB6
:06086B00300003430220EF
:050871008A8202083735
:0E087600E582FAC4540FF582C00212085DD06C
:0908840002740F5AF58202085DAE
:06088D00858210AB41ACB6
:0408930042AD43AE81
:0408970044AF4575B0
:02089B0011202A
:0E089D00EF2FFFEE235401FA4207EB2BFBEC8A
:0C08AB0033FCED33FDEE33FEC3EF95107F
:0A08B7004008EFC39510FF43030152
:0608C100D511D98B418C1A
:0408C700428D438E8D
:0408CB00448F4522EF
:0708CF0085823C85833D8515
:0308D600483E8514
:0308D900493F850F
:0408DC004A40E4F5B5
:0308E00046F54793
:0508E300AA4BAB4CAC78
:0C08E8004D8A828B838CF0120DD5FD74BC
:0908F400012AF54BE43BF54C8CA4
:0808FD004DEDFA7003020DB687
:05090500BA2502800389
:03090A00020DAE2D
:05090D00C201C202C29C
:0409120003C204C256
:0409160005C206C24E
:04091A0007C2087593
:08091E004F007550007DFFAE93
:040926004BAF4CABDC
:01092A004D7F
:0E092B008E828F838BF0120DD5FAA3AE82AFB1
:06093900838E4B8F4C8BF6
:0B093F004DBA25078A82120837809904
:05094A008A04BC30002E
:0D094F00402A8A04EC24C64023BDFF13E5B6
:0B095C005075F00AA4FCEA24D02CF532
:070967005070C1D20280BDF7
:0D096E00ED75F00AA4FCEA24D02CFD80B049
:0A097B00BA2E07BDFFAA7D0080A67A
:050985008A04BC6100C2
:0D098A00400E8A04EC248540075302DFD2A2
:03099700008002DB
:02099A00C20099
:05099C00BA20028055A5
:0509A100BA2B02804B9F
:0509A600BA2D028041A2
:0509AB00BA4202804B7E
:0509B000BA4302805073
:0609B500BA4403020B60CE
:0609BB00BA4603020B76B0
:0609C100BA4903020B60BD
:0509C700BA4C0280346F
:0609CC00BA4F03020B67A5
:0609D200BA5003020AF70F
:0509D800BA5302804C3F
:0609DD00BA5503020B6C89
:0609E300BA5803020B717B
:0309E900020B7A84
:0509EC00D20102092BFD
:0509F100D20302092BF6
:0509F600D20402092BF0
:0509FB00D20602092BE9
:050A0000D20702092BE2
:080A050030060AE54E14F888E2
:050A0D004E8602800F7F
:0A0A1200E54E24FEF8884E86030826
:050A1C008604188B02A6
:080A21008A82120837020B83E0
:0A0A2900E54E24FDF8884E86030810
:0A0A3300860408860618188B418C13
:040A3D00428E43851D
:060A41004182854283851D
:0C0A470043F0C005120DBDAB82AC83D0A3
:060A530005BDFF028B054A
:0A0A590020012CC3EB95505026E558
:060A630050C39BF550ACEE
:010A6900503C
:0C0A6A008C061C8C50EE6014758220C0BD
:0E0A760003C004C005120837D005D004D00319
:020A840080E40C
:020A86008C5092
:020A88008D04DB
:070A8A00854182854283854E
:0C0A910043F0120DD5FDFA602F8C051CFF
:0E0A9D00C374808DF063F08095F050208A8243
:0C0AAB00C003C004120837D004D003AD13
:040AB70041AE42AF5B
:060ABB00430DBD00010E19
:050AC1008D418E428F03
:030AC6004380C1A9
:060AC900200103020B8373
:090ACF00C3EB95504003020B83B8
:070AD800E550C39BF550AC93
:010ADF0050C6
:0B0AE0008C051C8C50ED7003020B8194
:0C0AEB00758220C004120837D00480E996
:0A0AF700E54E24FDF8884E86050840
:0A0B0100860608860718188D418E3D
:040B0B00428F43AD25
:040B0F0043BD800062
:060B130040047A43801447
:030B1900BD6000BC
:060B1C0040047A50800B3A
:030B2200BD4000D3
:060B250040047A49800241
:020B2B007A58F6
:0E0B2D008A82C00212083775823A12083775A4
:0E0B3B008230120837758278120837D002BA5D
:040B49004902800BD2
:050B4D00BA5002800611
:060B5200854282120876C4
:080B580085418212087680231A
:070B6000D205754F0A801C4D
:050B6700754F08801726
:050B6C00754F0A801224
:050B7100754F10800D1E
:040B7600D208800918
:070B7A008A82120837800295
:020B81008C5096
:090B830030085AE54E24FCF88804
:0C0B8C004E8604088605088606088607C9
:080B98001818188C418D428EE3
:040BA000438F4475C6
:030BA40041DD75BB
:030BA700420E7586
:020BAA00438086
:040BAC0085415285A8
:030BB00042538528
:050BB30043547401250C
:070BB80052FFE43553FCADD0
:040BBF00548F418C82
:040BC300428D438597
:060BC70052828553838574
:0A0BCD0054F0120DD5FCFA7003027B
:020BD70008E331
:070BD9008A8212083780CC6C
:070BE000E54F70030208E37A
:040BE70075511B30F9
:070BEB00062BE54E14F8880B
:0A0BF2004EE6FD3395E0FEFFFC8D9A
:040BFC00418E428F55
:040C0000438C4420BD
:0A0C0400055EAC417D007E007F001C
:050C0E008C418D428EB7
:050C1300438F44804CFA
:090C180030071FE54E24FCF888AA
:0C0C21004E860408860508860608860733
:080C2D001818188C418D428E4D
:050C3500438F44802AFA
:0A0C3A00E54E24FEF8884E860408FB
:0C0C4400860518ED3395E0FEFF8C418D15
:040C5000428E438FFE
:050C54004420050CAC7A
:080C590041AD427E007F008ED8
:030C6100438F447A
:0A0C6400300522E54430E71BC3E42D
:090C6E009541FCE49542FDE4957A
:070C770043FEE49544FF8CED
:040C7E00418D428ED4
:050C8200438F448002D5
:020C8700C205A4
:060C8900D209A8517C0015
:0A0C8F00754500854F82C004C000C7
:0B0C990012088DD000D00420090DE5EA
:0A0CA40045C4FDE6FE4DF618885128
:020CAE008002C2
:020CB000A64557
:080CB2000C8C03B209E5414579
:040CBA004245434527
:080CBE004470CE88518C03E55F
:060CC6005070037550019F
:0A0CCC00200224200121EB04FCADFE
:010CD60050CD
:0E0CD700C3EC9D5015758220C003C004C005FB
:0C0CE500120837D005D004D0031D80E6B3
:020CF1008D5024
:0C0CF30030050E75822DC003120837D0AA
:050CFF000315508023E5
:0C0D0400EB602030030E75822BC0031240
:080D10000837D0031550800FD5
:0C0D180030040C758220C003120837D094
:030D240003155064
:050D2700200124AC5086
:0B0D2C008C051C8C50C3EB9D502B303D
:060D370002047D30800281
:020D3D007D2017
:0E0D3F008D82C003C004120837D004D0038098
:010D4D00DEC7
:0A0D4E00C3EB95505008E550C39B1D
:040D5800F5508007CB
:050D5C0075500080024B
:020D61008C50B4
:020D6300A85195
:0A0D65008B041BEC6026B209200984
:0B0D6F000A08E6C4540FFC8C45800706
:070D7A008604740F5CF545CF
:0C0D8100854582C003C00012085DD00050
:040D8D00D00380D43B
:060D91002001030208E34B
:020D9700AB505F
:090D99008B041BEC70030208E35B
:0C0DA200758220C003120837D00380EBDC
:080DAE008A821208370208E3F3
:070DB6008546828547832278
:0B0EDD003C4E4F20464C4F41543E005D
:040DBD00AA82AB83D8
:080DC100120DD56003A380F8B8
:0C0DC900C3E5829AF582E5839BF5832246
:03000B00758154A8
:0A000E00120E29E5826003020006CD
:0E0DD50020F71430F6148883A88220F507E674
:060DE300A88375830022C5
:030DE900E280F7AE
:030DEC00E493226B
:020DEF00E02200
:0E0DF100C2D5E58330E70DD2D5E4C39582F577
:060DFF0082E49583F583F8
:0A0E0500E51130E70DB2D5E4C39506
:050E0F0010F510E49550
:030E140011F511C4
:0E0E170012072B30D50BE4C39582F582E495CB
:030E250083F583CF
:010E280022A7
:040E290075820022AC
:00000001FF
