:0600000002000B0201FDED
:0700640075090E750A5A75BB
:02006B000BA5E3
:03006D0002000688
:0500060012062C80FE33
:08007000AA82AB837C007D0035
:0E007800C3EC9AED64808BF063F08095F0503D
:05008600147EE87F0379
:05008B001EBEFF011F75
:0B009000EE4F70F70CBC00E00D80DDAF
:01009B002242
:05009C00AA82BA0A006F
:0800A100500674302AF582229A
:0600A90074372AF58222E3
:0300AF008582C186
:0900B200E58630E1FB5386FD22D6
:0600BB00AA82AB83ACF049
:0E00C1008A828B838CF0120792FD60188D826C
:0500CF000ABA00010B5C
:0E00D400C002C003C0041200AFD004D003D09D
:0300E2000280DCBD
:0100E50022F8
:0A00E6001200BB9007EA75F08002DB
:0200F00000BB53
:0D00F200AA8274F05AC4540FF582C00212A5
:0D00FF00009C1200AFD002740F5AF582125F
:05010C00009C0200AFA1
:0E011100AA82AB8374F05BC4540FF582C00267
:0E011F00C00312009C1200AFD003740F5BF5FA
:0E012D0082C00312009C1200AFD003D00274F7
:0E013B00F05AFCE4C4CCC4540F6CCC540FCC6E
:0E0149006CCC8C82C002C00312009C1200AF6E
:0D015700D003D00253020F8A8212009C02D6
:0201640000AFEA
:0E016600AA827B00C3EA9480EB6480948050F0
:0A0174001E751F02E4F5208A828B3D
:0C017E00831207AEE5828583F0C3950C68
:09018A00F582E5F0950DF58322E4
:0C0193008A82EB24FFF583751F02E4F55F
:0B019F00201207AEE5828583F0C395B7
:0A01AA000CF582E5F0950DF58322B7
:0E01B400AA82AB83ACF0120792FDA312079251
:0E01C200FEA296E433FF7800B50506E8B50608
:0301D00002801496
:0E01D300B293900064C002C003C0041200701A
:0601E100D004D003D0029F
:0E01E700A296E433FD7E008A828B838CF0EDBD
:0801F500120750A3EE020750AF
:0E01FD00C0E0C082C083C002C0D075D00090A8
:09020B00DF3BE0FABA0D028005A8
:05021400BA132680135F
:06021900AA080508EA2412
:0A021F0000F582E434F0F583E5D920
:03022900F0801151
:06022C00AA080508EA24FF
:0A02320000F582E434F0F583E0F5F6
:01023C00D9E8
:0B023D00D0D0D002D083D082D0E032BD
:0E0248009007ED75F0801200E675CBDCC2D891
:0C02560030D8FD75CB0075080075E10381
:0802620090DF3BE0FABA13F84B
:0E026A0090DF3BE0FABA01F875E9009007F664
:0602780075F0800200E6B3
:0A027E00AA82AB83ACF0751F09756E
:0602880020007521407505
:06028E002203E4F52390B9
:0E029400F00075F000C002C003C0041206F8AE
:0A02A200D004D003D0028A1F8B2085
:0702AC008C2175220CE4F522
:0802B3002390F00375F0001226
:0602BB0006F87A007B004A
:0A02C100C3EA950EEB6480850FF090
:0E02CB0063F08095F05012C002C0031202488A
:0B02D900D003D0020ABA00E00B80DD69
:0102E40022F7
:0802E500E5E920E40302050134
:0D02ED0075E9009007FE75F0801200E690A4
:0902FA00F000E0F5821200F29020
:09030300080A75F0801200E69072
:09030C00F001E0F5821200F2900C
:09031500F002E0F5821200F29002
:0C031E00080A75F0801200E67A037B00EC
:0C032A0090F000E0FC7D000CBC00010D18
:0C033600C3EA9CEB9D50358A04EC240DBA
:0A034200F8EA2400F582EB34F0F530
:0C034C0083E0F68A048B050ABA00010B5E
:0A035800EC2400F582ED34F0F5838B
:0E036200E0F582C002C0031200AFD003D0024B
:0203700080B853
:0A037200751C0090080A75F0801257
:09037C0000E690080B75F08012F8
:0C03850000BB90DF3AE0F5821200F2901D
:0E039100081275F0801200BB90DF39E0F58293
:0A039F001200F290080A75F08012B7
:0E03A90000E690DF3CE0FA30E70B9008197593
:0703B700F0801200E680094E
:0903BE0090082175F0801200E6A0
:0403C700751F2B75FE
:0303CB0020087592
:0703CE002180752203E4F514
:0803D5002390001075F04012A6
:0E03DD000679E5828583F045F0600302050194
:0403EB00751F2F75D6
:0303EF002008756E
:0703F2002180752209E4F5EA
:0803F9002390001375F040127F
:0C0401000679E5828583F045F0701475E3
:06040D000E01E4F50F9062
:0B041300001075F04012027ED2930230
:02041E000501D6
:04042000751F397596
:0304240020087538
:070427002180752209E4F5B4
:08042E002390001375F0401249
:0C0436000679E5828583F045F0701475AE
:060442000E01E4F50F902D
:0B044800001075F04012027EC293020B
:020453000501A1
:04045500751F437557
:0304590020087503
:07045C002180752209E4F57F
:080463002390001375F0401214
:0C046B000679E5828583F045F07012757B
:060477000E01E4F50F90F8
:09047D00001075F04012027E022D
:0204860005016E
:04048800751F4D751A
:03048C00200875D0
:07048F002180752209E4F54C
:080496002390001375F04012E1
:0C049E000679E5828583F045F070147546
:0604AA000E01E4F50F90C5
:0D04B000001075F04012027E120000804422
:0404BD00751F5775DB
:0304C1002008759B
:0704C4002180752209E4F517
:0804CB002390001375F04012AC
:0E04D3000679E5828583F045F07023209311B1
:0704E100750E01E4F50F9018
:0A04E800086175F08012027E800F9B
:0704F200750E01E4F50F9007
:0804F900086E75F08012027E0E
:0905010090DF3BE0FABA0D012283
:06050A0075080075E10216
:0E05100090DF3BE0FABA0DF890087B75F080A2
:03051E000200E6F2
:0305210053BEFBCB
:0E052400E5BE30E6FBAAC674B85AF5F07401C5
:0405320045F0F5C6D5
:0E053600E5C620E6FB43BE0475E10490DF0B32
:0E0544007424F090DF0A742DF090DF09742407
:0E055200F090DF2E74C2F090DF07740CF09072
:0E056000DF0C741DF090DF0D7455F090DF0E6F
:0E056E007413F090DF117463F090DF1A74B60E
:0E057C00F090DF15741DF090DF16741CF090E7
:0E058A00DF1774C7F090DF18E4F090DF1974EB
:0E059800B0F090DF1C74EAF090DF08E4F09001
:0E05A600DF1B7410F090DF147418F090DF1C4F
:0E05B40074EAF090DF1D742AF090DF1EE4F070
:0D05C20090DF1F741FF090DF237488F0900D
:0E05CF00DF247431F090DF257409F090DF0F07
:0E05DD007423F090DF107411F090DF06E4F04C
:0D05EB0090DF137430F090DF037404F09083
:0E05F800DF047445F090DF05E4F090DF02743C
:0A0606000FF0750C4DE4F50D75E9D9
:0B06100000750800C289D2A875E10443
:0E061B0090DF3BE0FABA01F890089175F0808C
:030629000200E6E6
:0E062C00AAF174FE5AF5F0740245F0F5F143A0
:0E063A00F30C4386C075C50D75C23BC28B43E1
:0B064800FE08C293A296E433F51D7576
:0A0653001E00120521D2D1D2AF75AE
:06065D000E05E4F50F900C
:08066300089F75F08012027E71
:0A066B001202E590001D75F0401228
:0406750001B480F25A
:0307EA000D0A00F5
:0907ED0053746172742054580029
:0807F600446F6E6520545800A9
:0C07FE004E6577205061636B65743A0013
:01080A0000ED
:07080B00525353493A20004B
:07081200204C51493A20007F
:080819004352433A204F4B000B
:0A0821004352433A204661696C001F
:04082B00614C4C00D0
:0A082F004C45444F4E2D2D2D2D0099
:0A0839004C45444F46462D2D2D007E
:0A08430048454C4C4F2D2D2D2D0083
:0A084D005245424F4F542D2D2D004F
:0A0857004C45442D2D2D2D2D2D00B4
:0D086100614C4C4C45444F46462D2D2D005A
:0D086E00614C4C4C45444F4E2D2D2D2D005E
:0E087B0057616974696E6720746F207265633F
:08088900656976652E2E2E0034
:0E089100526164696F20537461727465640073
:0D089F00614C4C5354415254494E472D00BA
:0A067900AA82AB83ACF0E522452312
:060683007004900000224B
:05068900AD1FAE20AF23
:04068E0021A822A9D4
:010692002344
:0506930018B8FF011979
:0E069800E84960368A828B838CF0120792F557
:0C06A600246029C000C0018D828E838F6B
:0A06B200F0120792F8B5240280064A
:0606BC00D001D000801007
:0906C200D001D0000ABA00010BBE
:0706CB000DBD00C40E80C14B
:0E06D2008A828B838CF0120792FA3395E0FB3C
:0E06E0008D828E838FF0120792FD3395E0FC21
:0A06EE00EAC39DF582EB9CF5832220
:06003A00E478FFF6D8FD9A
:0A06F800AA82AB83ACF08A248B25A4
:050702008C26A81FA9D0
:0407070020AD218878
:04070B002789288D85
:04070F0029A822A94A
:0107130023C2
:090714008805890618B8FF0119D7
:0A071D00ED4E6025852782852883B4
:0A0727008529F0120792FDA38582D8
:0A073100278583288A828B838CF0D1
:0B073B00ED120750A3AA82AB8380CE12
:0707460085248285258385CF
:03074D0026F02271
:080018007900E94400601B7A45
:05002000009008AC781F
:03002500FF7593D1
:0A002800F0E493F2A308B80002050B
:0800320093D9F4DAF27593FF93
:0E07500020F71030F6118883A88220F507F6F6
:05075E00A88375830073
:010763002273
:03076400F280F729
:02076700F0227E
:080040007800E84400600A7931
:03004800007593AD
:06004B00F0E4F309D8FC0B
:0800510078FFE84400600C791F
:0B0059000190F000E4F0A3D8FCD9FAFD
:050769007A10E4FBFC26
:0E076E00E58225E0F582E58333F583EB33FB6E
:0A077C00EC33FCEB951FF5F0EC9553
:09078600204006FCABF0438201A7
:03078F00DADD228E
:03000B00758129D3
:0A000E001207E6E582600302000617
:0E07920020F71430F6148883A88220F507E6BD
:0607A000A883758300220E
:0307A600E280F7F7
:0307A900E49322B4
:0207AC00E02249
:0E07AE00C2D5E58330E70DD2D5E4C39582F5C0
:0607BC0082E49583F58341
:0A07C200E52030E70DB2D5E4C39541
:0507CC001FF51FE4957C
:0307D10020F520F0
:0E07D40012076930D50BE4C39582F582E495D7
:0307E20083F58319
:0107E50022F1
:0407E60075820022F6
:00000001FF
